:020000040020DA
:10000000AC4A0020F1192000D5192000E119200088
:10001000E9192000E9192000E9192000000000007A
:10002000000000000000000000000000E9192000AE
:10003000E919200000000000E9192000E91920005A
:10004000E9192000E9192000E9192000E919200028
:1000500000000000E9192000E9192000E91920003A
:10006000E91920000000000000000000000000006E
:100070000000000000000000E9192000000000005E
:100080000000000000000000E9192000E91920002C
:10009000E9192000E9192000E9192000E9192000D8
:1000A000E9192000E9192000E9192000E9192000C8
:1000B000E9192000E9192000E9192000E9192000B8
:1000C000E9192000E9192000E9192000E9192000A8
:1000D000E9192000000000000000000000000000FE
:1000E0000000000000000000000000000000000010
:1000F000E919200000000000E9192000E91920009A
:1001000000000000000000000000000000000000EF
:1001100000000000000000000000000000000000DF
:1001200000000000000000000000000000000000CF
:1001300000000000000000000000000000000000BF
:1001400000000000000000000000000000000000AF
:10015000000000000000000000000000000000009F
:10016000000000000000000000000000000000008F
:10017000000000000000000000000000000000007F
:10018000000000000000000000000000000000006F
:10019000000000000000000000000000000000005F
:1001A000000000000000000000000000000000004F
:1001B000000000000000000000000000000000003F
:1001C000000000000000000000000000000000002F
:1001D000000000000000000000000000000000001F
:1001E000000000000000000000000000000000000F
:1001F00000000000000000000000000000000000FF
:1002000000000000000000000000000000000000EE
:1002100000000000000000000000000000000000DE
:1002200000000000000000000000000000000000CE
:1002300000000000000000000000000000000000BE
:1002400000000000000000000000000000000000AE
:10025000000000000000000000000000000000009E
:10026000000000000000000000000000000000008E
:10027000E9192000E9192000E9192000E9192000F6
:10028000E9192000E9192000E919200080B582B0A1
:1002900000AF00F09DF83148314901F02BFC01F02E
:1002A0003BFC30480021082205F044F82E482D215F
:1002B000172205F03FF82B4B0D22DA77294B0A2243
:1002C00083F82020274800F0C7FC0023BB710023DF
:1002D000FB7125E0BB79FA7922498A5C1209D2B216
:1002E00002F00F022149895C1E4A13440A461A7221
:1002F000BB790133BB71BB79FA791A498A5C02F088
:100300000F021A49895C174A13440A461A72BB79CC
:100310000133BB71BB790133BB71FB790133FB71D5
:10032000FB79072BD6D90F4B002283F822200D4BE7
:10033000002283F821200B4B93F821301A46094BF9
:1003400013441B7A184601F00FFC00BF054B93F8CD
:100350002230DBB2002BF9D0A3E700BF71032000ED
:10036000B5032000C04A0020C84A00208C4200206B
:1003700080B500AF0E4B93F821300133DAB20C4B4D
:1003800083F821200A4B93F82130182B0AD8084B08
:1003900093F821301A46064B13441B7A184601F095
:1003A000E3FB03E0024B012283F8222080BD00BF63
:1003B000C04A002080B400AFBD465DF8047B7047A2
:1003C00080B500AFFFF762FF0346184680BD00BF4F
:1003D00080B500AF00F08AF800F0B8F800F022F81D
:1003E00000F062F800F06EF800F0ACFD00F00EFBDB
:1003F00000F088F901F044FA01F030FB00F002FF50
:1004000000F056FC01F0AEFA00F0DCF900F0C2FE9C
:1004100080BD00BF80B500AF002004F06BFB04F08E
:1004200099F980BD80B500AF0448322102F0D0FDBB
:1004300002484FF6FF7102F09DFD80BD0020034091
:1004400080B582B000AF0648FF2102F053FF03469B
:100450005B097B607B6818460837BD4680BD00BFDE
:100460000020034080B584B000AF78600A48FF21C7
:1004700002F040FF03465B09FB607A68FB68D31A11
:10048000BB60BB68002B01DD002300E001231846A0
:100490001037BD4680BD00BF0020034080B500AFCF
:1004A00004F050F980BD00BF80B500AF04480421BE
:1004B00002F02EFB02480421FB2202F0FDFA80BD6F
:1004C00000C00D4080B500AF02480421FB2202F0BD
:1004D000F3FA80BD00C00D4080B500AF0248042192
:1004E000042202F0E9FA80BD00C00D4080B500AFE3
:1004F0001248FF2102F00CFB1148FF2102F008FB1B
:100500001048FF2102F004FB0F48FF2102F000FB1E
:100510000A48FF21002202F0CFFA0948FF210022F9
:1005200002F0CAFA0748FF21002202F0C5FA064885
:10053000FF21002202F0C0FA80BD00BF00900D40F4
:1005400000A00D4000B00D4000C00D4080B582B04D
:1005500000AF03F025FA0346FB711B48402100223F
:1005600002F020F918488021002202F01BF91648F9
:100570004021012203F06AFD13488021012203F08B
:1005800065FD01200021002203F0B6FF012004F0E8
:1005900065F800BF0D4B1B6803F40023002BF9D056
:1005A00000F016F800F046F800F076F800F0A4F835
:1005B000FB7983F00103DBB2002B01D003F0E4F9F7
:1005C0000837BD4680BD00BF00C00D4004200D406F
:1005D00080B500AF002004F0D9F9012004F0D6F96D
:1005E000032004F0D3F94FF4807004F0CFF940F207
:1005F000011004F0CBF940F2012004F0C7F94FF4E8
:10060000407004F0C3F94FF4806004F0BFF940F289
:10061000014004F0BBF9022004F094F9032004F037
:1006200091F94FF4007004F08DF94FF4A06004F0DC
:1006300089F980BD80B500AF002004F0EFF90120FA
:1006400004F0ECF9032004F0E9F94FF4807004F0B1
:10065000E5F940F2011004F0E1F940F2012004F064
:10066000DDF94FF4407004F0D9F94FF4806004F0E4
:10067000D5F940F2014004F0D1F9022004F0AAF9C2
:10068000032004F0A7F94FF4007004F0A3F94FF42D
:10069000A06004F09FF980BD80B500AF002004F099
:1006A00005FA012004F002FA022004F0FFF9032009
:1006B00004F0FCF94FF4807004F0F8F940F20110F6
:1006C00004F0F4F94FF4007004F0F0F940F2012066
:1006D00004F0ECF94FF4407004F0E8F94FF4806056
:1006E00004F0E4F940F2014004F0E0F94FF4A060B6
:1006F00004F0DCF980BD00BF80B500AF202002F01F
:1007000015FC80BD80B582B000AF4FF6FF737B60F3
:1007100002E07B68013B7B607B68002BF9D1114BC9
:1007200000221A601048082102F0DCF90E48082166
:10073000042203F08BFC0C480821002202F09CF8F4
:1007400009480A4902F080F90748082102F06AF9CD
:1007500003F01AF90448082102F01EF90837BD46D3
:1007600080BD00BFE44A002000900D4071072000CA
:1007700080B582B000AF03F013F91048012102F0F8
:1007800039F9786000BF0D48082102F083F903466B
:10079000002BF8D00A4B1B68002B03D0084B1B68BA
:1007A000002098477B68DBB20448194602F03AF90A
:1007B00003F0EAF80837BD4680BD00BF00900D4049
:1007C000E44A002080B500AF40F2014004F074F824
:1007D00040F2014004F0B6F80023184680BD00BF87
:1007E000B0B58EB008AFF8607A603B600B46FB7224
:1007F0003B681B78002B14BF01230023FB7507F116
:100800001603386B194600F0D9F80346002B43D184
:100810003B681B7898B2FB7A99B2BA7D3B681B782B
:100820001C467B682344FD7D97F834400090F868AF
:10083000019002910392049397F82C3005930023C2
:10084000069328462146BA6A7B6801F0EBFB034613
:10085000002B21D100BF01F0F9FC0346002BF9D099
:100860003B681B789AB23B681B7819467B680B443F
:1008700097F83410084611461A4601F00BFD03465E
:10088000002B09D13B681A7897F834301344DAB258
:100890003B681A70002300E0012318461837BD4654
:1008A000B0BD00BF90B593B008AFF8607A603B6010
:1008B0000B46FB723B681B781A4697F84430D31AF4
:1008C000002BCCBF0123002387F8273007F1260334
:1008D000386C194600F072F80346002B3DD13B6896
:1008E0001B7899B2FB7A9AB297F8263097F82700CE
:1008F00097F844400091F96801910292039307F13F
:100900001403049397F83C30059300230693214683
:10091000BA6B7B6801F048FD0346002B1DD100BF78
:1009200001F050FE0346002BF9D03B681B789AB2C9
:1009300097F8441007F114030846796801F04AFE5D
:100940000346002B09D13B681A7897F84430D31A34
:10095000DAB23B681A70002300E0012318462C37F6
:10096000BD4690BD80B586B002AF7860396007F1B2
:100970000F033868194600F021F80346002B17D101
:10098000FA7B0023009378687968012301F058FA14
:100990000346002B0CD100BF01F0D6FA0346002B12
:1009A000F9D001F0F5FA0346002B01D1002300E055
:1009B000012318461037BD4680BD00BF90B583B0F7
:1009C00000AF7860396010487968102204F080FC2C
:1009D0000346002B10D00C4A7B68144618685968EF
:1009E0009A68DB680FC40848002101F069F90346E2
:1009F000002B01D0012303E03B6800221A70002382
:100A000018460C37BD4690BD9C42002080B500AF13
:100A10000948342102F07CF808480E2102F078F8E9
:100A200005487C21002202F047F804480E210022EC
:100A300002F042F880BD00BF00900D4000C00D40A4
:100A400080B500AF0248102100F0EAF880BD00BF79
:100A500000900D4080B500AF02481021002202F046
:100A60002BF880BD00900D4080B500AF02481021EA
:100A7000102202F021F880BD00900D4080B500AF3B
:100A80000248082100F0CCF880BD00BF00C00D4036
:100A900080B500AF02480821002202F00DF880BDA9
:100AA00000C00D4080B500AF02480821082202F0C6
:100AB00003F880BD00C00D4080B500AF024804219E
:100AC00000F0AEF880BD00BF00C00D4080B500AFA3
:100AD00002480421002201F0EFFF80BD00C00D405C
:100AE00080B500AF02480421042201F0E5FF80BD7B
:100AF00000C00D4080B500AF0248022100F090F820
:100B000080BD00BF00C00D4080B500AF024802218B
:100B1000002201F0D1FF80BD00C00D4080B500AFC4
:100B200002480221022201F0C7FF80BD00C00D4033
:100B300080B500AF0248082100F072F880BD00BF08
:100B400000900D4080B500AF02480821002201F05E
:100B5000B3FF80BD00900D4080B500AF0248082172
:100B6000082201F0A9FF80BD00900D4080B500AFC4
:100B70000248402100F054F880BD00BF00900D40B5
:100B800080B500AF02484021002201F095FF80BDF2
:100B900000900D4080B500AF02484021402201F096
:100BA0008BFF80BD00900D4080B500AF0248202132
:100BB00000F036F880BD00BF00900D4080B500AF5A
:100BC00002482021002201F077FF80BD00900D40F7
:100BD00080B500AF02482021202201F06DFF80BDCA
:100BE00000900D4080B500AF0248042100F018F8D5
:100BF00080BD00BF00900D4080B500AF02480421C9
:100C0000002201F059FF80BD00900D4080B500AF7B
:100C100002480421042201F04FFF80BD00900D40E6
:100C200080B584B000AF78600B46FB70FB787868C5
:100C3000194601F02FFFF860FB68DA43FB78134098
:100C4000FB60FB68DBB2FA78786811461A4601F05F
:100C500033FF1037BD4680BD80B485B000AF7860EB
:100C6000114BFB6007E07B685A1C7A60FA68511EE2
:100C7000F96012781A70FB68B3F1281FF3D20B4B9E
:100C8000FB6007E07B685A1C7A60FA68511EF960C5
:100C900012781A70FB68044A9342F3D81437BD46A1
:100CA0005DF8047B704700BF2B0028002F00280050
:100CB00080B582B000AF4FF4407003F043FE4FF4B4
:100CC000407003F087FE4FF4407003F0EFFE4FF4E6
:100CD000407003F0F1FD1548082101F02FFF134883
:100CE0000821134A03F0DCF8104808210C2203F015
:100CF00073F80E48042101F021FF0C4804210D4A2D
:100D000003F0CEF8094804210B2203F065F8002314
:100D1000FB7103F04FFC0246FB791046194602F0C6
:100D20000BFC02F047FC0837BD4680BD00B00D400B
:100D300030410D402C410D4080B584B000AF0346DA
:100D40003960FB71144BFB60FB791846012102F0FE
:100D50006BFD072002F0A2FDFFF772FB0246FB6865
:100D60001344FB6007E0F868FFF77CFB0346002BA9
:100D700001D000230BE002F06DFD0346002BF2D101
:100D800002F0CAFD0346DAB23B681A700123184626
:100D90001037BD4680BD00BFA086010090B587B06A
:100DA00000AF0346B9607A60FB731E4B7B61FB7B2F
:100DB0001846012102F038FD0B2002F06FFDFFF70D
:100DC0003FFB02467B6913447B6122E007E07869C0
:100DD000FFF748FB0346002B01D07B681DE002F0C3
:100DE00039FD0346002BF2D1BC68631CBB6002F0E6
:100DF00093FD0346DBB223707B68013B7B607B681D
:100E0000012B03D1052002F049FD02E0092002F088
:100E100045FD7B68002BD9D17B6818461C37BD4641
:100E200090BD00BFA086010080B584B000AF03462E
:100E30000A46FB711346BB71134BFB60FB791846E6
:100E4000002102F0F1FCBB79184602F055FD0720A5
:100E500002F024FDFFF7F4FA0246FB681344FB603E
:100E600007E0F868FFF7FEFA0346002B01D00023E5
:100E700005E002F0EFFC0346002BF2D101231846F7
:100E80001037BD4680BD00BFA086010080B586B08A
:100E900000AF0346B9607A60FB73294B7B61FB7B33
:100EA0001846002102F0C0FCBB685A1CBA601B78CF
:100EB000184602F021FD7B68013B7B60032002F0B5
:100EC000EDFCFFF7BDFA02467B6913447B6107E046
:100ED0007869FFF7C7FA0346002B01D07B682BE047
:100EE00002F0B8FC0346002BF2D121E0BB685A1C8B
:100EF000BA601B78184602F0FFFC7B68012B03D117
:100F0000052002F0CBFC02E0012002F0C7FC07E064
:100F10007869FFF7A7FA0346002B01D07B680BE046
:100F200002F098FC0346002BF2D17B68013B7B600A
:100F30007B68002BDAD17B6818461837BD4680BD28
:100F4000A086010080B500AF0448382101F0E0FD23
:100F500002483821002201F0AFFD80BD00C00D40E5
:100F600080B500AF202000F0D5F880BD80B500AF7F
:100F7000202000F0E1F880BD80B500AF202000F017
:100F8000EBF880BD80B582B000AF0748202101F0AA
:100F900081FD78607B68DBB203F020031B11DBB2BC
:100FA00018460837BD4680BD00C00D4080B500AF73
:100FB000082000F0AFF880BD80B500AF082000F039
:100FC000BBF880BD80B500AF082000F0C5F880BD3B
:100FD00080B582B000AF0548082101F05BFD786064
:100FE000002318460837BD4680BD00BF00C00D4035
:100FF00080B500AF102000F08DF880BD80B500AF47
:10100000102000F099F880BD80B500AF102000F0EE
:10101000A3F880BD80B582B000AF0548102101F073
:1010200039FD7860002318460837BD4680BD00BFF3
:1010300000C00D4080B500AF102000F06BF880BDFF
:1010400080B500AF102000F077F880BD80B500AF0C
:10105000102000F081F880BD80B582B000AF054857
:10106000102101F017FD7860002318460837BD46AF
:1010700080BD00BF00C00D4080B500AF382000F03B
:1010800049F880BD80B500AF382000F055F880BD2C
:1010900080B500AF382000F05FF880BD80B582B029
:1010A00000AF382000F048F80023FB711FE020203B
:1010B00000F052F84FF6FF73BB8004E0BB889BB290
:1010C000013B9BB2BB80BB889BB2002BF6D14FF695
:1010D000FF73BB8004E0BB889BB2013B9BB2BB802B
:1010E000BB889BB2002BF6D1FB790133FB71FB79F6
:1010F0004F2BDCD90837BD4680BD00BF80B400AFA0
:10110000BD465DF8047B704780B400AFBD465DF816
:10111000047B704780B582B000AF0346FB71FA795B
:10112000FB79044811461A4601F0C6FC0837BD4653
:1011300080BD00BF00C00D4080B582B000AF034647
:10114000FB71FB7903481946002201F0B5FC083712
:10115000BD4680BD00C00D4080B584B000AF0346E1
:10116000FB71FB790A48194601F094FCF860FB68B2
:10117000DA43FB791340FB60FB68DBB2FA79044881
:1011800011461A4601F098FC1037BD4680BD00BFDD
:1011900000C00D4080B500AF0D480821132202F0B9
:1011A0001BFE0C480C4901F013FF0A48FF210022E6
:1011B00001F038FF0748FF2140F2D23202F066F812
:1011C0000448FF2140F2E91202F0AAF880BD00BFF6
:1011D00000A00D40003003400A00000480B500AFBD
:1011E0000248FF2101F0C6FE80BD00BF0030034071
:1011F00080B500AF0248FF2101F0D2FE80BD00BFE4
:101200000030034080B500AF354800210C2204F0C7
:1012100091F8334B00221A72324BED221A60314B97
:10122000ED221A602F4BEE221A602E4BEE221A602E
:1012300000F064FA00F046FA2B4B14221A602B4B94
:101240003F221A602A4B55221A602A4B85221A60C7
:10125000294B01221A60294B15221A60284B1022B3
:101260001A60284B0E221A60274B03221A60274B64
:10127000F8221A60264B09221A60204B15221A60A8
:1012800004230B221A60234BFF221A60224B4022B8
:101290001A60224A214B1B6823F001031360204B84
:1012A00000221A601F4B7F221A601F4BD5221A6042
:1012B0001E4B0B221A609D201D4902F07DFB9E20D3
:1012C0001C4902F079FB9D2002F040FC1A4B7F2262
:1012D0001A609E2002F03AFC014B01221A7280BD76
:1012E000EC4A002038880840A4860840AC860840B4
:1012F000B0860840A0860840B8860840C8860840E6
:10130000D4860840D8860840DC86084058860840C5
:10131000E8870840948708402486084000860840F3
:101320000886084050860840408608403C860840B1
:101330004D1720003D1820009486084080B483B0EB
:1013400000AF7860034A7B6813600C37BD465DF8D8
:10135000047B7047EC4A002080B483B000AF786013
:10136000034A7B6853600C37BD465DF8047B7047C9
:10137000EC4A002080B500AF00BF0E4B1B6803F0A5
:101380000203002BF9D10C4BED221A600A4BED221F
:101390001A60094BEE221A60074BEE221A60074BC7
:1013A0001B68002B02D0044BEF221A60FFF72AFFC4
:1013B00080BD00BF4C860840388808402C86084015
:1013C00080B582B000AF0346FB710D4B02221A724A
:1013D00000F094F9FB790A2B02D9FB791A2B00D97A
:1013E000FEE70849FB79A3F10B0213469B00134467
:1013F0000B330B60024B03221A720837BD4680BDC7
:10140000EC4A00203C86084080B485B000AF03461B
:10141000FB71FF23BB730D23FB73FB7B0D4A12F89B
:10142000133097F907205BB29A4206DCFB7B094A2E
:101430005B0013445B78BB7303E0FB7B013BFB73F6
:10144000EBE7054ABB7B13601437BD465DF8047BB0
:10145000704700BF2C5520004086084080B400AF84
:10146000BD465DF8047B704780B500AF074B0D2289
:101470001A7200F043F9FFF7BFFBFFF7BFFD00F062
:1014800021F9024B01221A7280BD00BFEC4A0020F4
:1014900080B485B000AF78600B467B800023FB737F
:1014A000154B04221A7200BF144B1B6803F0020391
:1014B000002BF9D1124BEE221A60114BEE221A606A
:1014C000104A7B8813600023FB7308E00D49FB7B07
:1014D0007A6813441B780B60FB7B0133FB73FB7B47
:1014E0009BB27A889A42F1D8034B05221A721437BC
:1014F000BD465DF8047B7047EC4A00204C860840EE
:10150000388808402888084080B500AF054B06227F
:101510001A72FFF77BFBFFF76BFD024B07221A7273
:1015200080BD00BFEC4A002080B582B000AF0F4BF9
:1015300008221A7200F0B0F800BF0D4B1B6803F0D0
:101540000203002BF9D10B4BE9221A6000237B60C8
:1015500002E07B6801337B60054B1B6803F00203EC
:10156000002BF6D00837BD4680BD00BFEC4A0020F6
:101570004C8608403888084080B500AF054B0922EA
:101580001A72FFF743FBFFF733FD024B0A221A7270
:1015900080BD00BFEC4A002080B500AF094BED22B2
:1015A0001A60084BED221A6000F076F8054BE32232
:1015B0001A6000BF044B1B6803F00103002BF9D035
:1015C00080BD00BF388808404C86084080B487B092
:1015D00000AFF860B9603B601346FB710023BB7538
:1015E0002B4B1B68BB75BB7D5BB2002B06DA294B0E
:1015F000ED221A60274BED221A6044E0BB7D042BDC
:1016000006D8244BED221A60224BED221A603AE0F4
:10161000BA7DFB799A4206D91E4BED221A601D4B0A
:10162000ED221A602FE00023FB7509E0FB7DFA68CC
:101630001344174A1268D2B21A70FB7D0133FB754E
:10164000FA7DBB7D023B9A42F0DB114B1B68DBB29B
:10165000493BDBB2DAB23B681A700D4B1B687B75F5
:101660007B7D03F08003002B14BF01230023DAB23B
:101670007B6A1A70BB68BA7D1A70064BED221A603D
:10168000044BED221A601C37BD465DF8047B7047A1
:10169000288808403888084080B400AF074A074BC4
:1016A0001B6843F007031360054A054B1B6843F0B2
:1016B00002031360BD465DF8047B70478C860840CA
:1016C0009086084080B400AF044B00221A60044B9F
:1016D00000221A60BD465DF8047B70478C86084086
:1016E0009086084080B400AF034BE3221A60BD46E9
:1016F0005DF8047B704700BF3888084080B400AFB5
:1017000000BF0A4B1B6803F00203002BF9D1084B02
:101710001B68002B06D0074BEF221A60064B6FF0B8
:1017200044021A60BD465DF8047B70474C86084051
:101730002C860840388808403488084080B400AFC0
:1017400000231846BD465DF8047B704780B582B023
:1017500000AFFFF73DFA00F0DBF803463B60344B87
:101760001B68FB71334B1B68BB719D2002F0C0FAF4
:101770002F4B00221A602F4B00221A60FB7903F0D6
:101780000203002B0FD02C4B0B221A722A4B1B6822
:10179000002B07D0284B1B683A6810469847FFF784
:1017A0000DFA41E0FEE7FB7903F04003002B0FD078
:1017B000214B0C221A72204B5B68002B07D01E4B6A
:1017C0005B683A6810469847FFF7F8F92CE0FEE7A7
:1017D000FB7903F00403002B0FD0174B0C221A7275
:1017E000154B5B68002B07D0134B5B683A681046BB
:1017F0009847FFF7E3F917E0FEE7BB7903F0020330
:10180000002B0FD00C4B0C221A720B4B5B68002B79
:1018100007D0094B5B683A6810469847FFF7CEF946
:1018200002E0FEE7FFF7CAF90837BD4680BD00BFFA
:101830003488084030880840EC4A002080B582B0E7
:1018400000AFFFF7C5F90C4B1B68FB719E2002F03F
:101850004FFA094B00221A60FB7903F00403002BB6
:1018600005D0064BED221A60044BED221A60FFF7FB
:10187000A5F90837BD4680BD2C8808403888084047
:1018800080B500AF06480021042203F053FDA120DB
:10189000044902F091F8A12002F0A2F980BD00BF36
:1018A000F84A00203919200080B483B000AF786076
:1018B000034A7B6813600C37BD465DF8047B7047B4
:1018C000F84A002080B582B000AF7860A12002F015
:1018D0003DF902F04FFD02467B68D31A0B4A934252
:1018E00003D8A12002F0C6F90DE002F043FD024644
:1018F0007B689B1A042B03D8A12002F0BBF902E0FD
:10190000786802F07BFD0837BD4680BDFEFFFF0012
:1019100080B500AF02F02EFD0346184680BD00BF23
:1019200080B500AFA12002F011F980BD80B500AFF5
:10193000A12002F055F980BD80B500AFFFF748F94E
:10194000074B1B68002B07D0A12002F0D1F9044BF4
:101950001B689847FFF732F9FFF730F980BD00BFE9
:10196000F84A002080B500AF02480021092203F0A8
:10197000E1FC80BDFC4A002080B483B000AF034688
:10198000FB71FB79064AD35C002B14BF01230023B3
:10199000DBB218460C37BD465DF8047B704700BFCC
:1019A000FC4A002080B483B000AF0346FB710023E3
:1019B00018460C37BD465DF8047B704780B483B091
:1019C00000AF0346FB71002318460C37BD465DF897
:1019D000047B704780B500AF00F00AF8FEE700BF57
:1019E00080B400AFFEE700BF80B400AFFEE700BFE9
:1019F00080B582B000AF114BFF221A60104B114A24
:101A00001A60114B7B60114B3B6007E03B681A1D6D
:101A10003A607A68111D796012681A603B680C4A56
:101A20009342F3D30B480C494FF000028842B8BFF1
:101A300040F8042BFADBFEF7C3FCFEE7B4200D40B0
:101A400008ED00E0000020003C582000004000208D
:101A50009C4200209C420020144B002080B500AF27
:101A60001F4800210C2203F065FC1E4803F062F9B8
:101A70001C4841F6FF7103F0FBFA1A48012103F0FC
:101A800077FB19480221002202F0A6F9164802212C
:101A900001F0ACF814480121144A02F001FA12488E
:101AA000012101F08DF802F0F3FD03460D481946BF
:101AB0004FF4E132602303F0A5F80A4803F01CF963
:101AC000084803F06FF90748102103F0B1F9054801
:101AD000074903F087FA152002F038F880BD00BFEF
:101AE000084B002000C0004000900D4000410D4018
:101AF000011C200080B483B000AF78603960054AD3
:101B00007B681360034A3B6853600C37BD465DF841
:101B1000047B7047084B002080B500AF024870215D
:101B200003F092FA80BD00BF00C0004080B500AF56
:101B30000248702103F09CFA80BD00BF00C0004045
:101B400080B500AF0248502103F0BCFA80BD00BF51
:101B500000C0004080B500AF0248202103F0B2FA77
:101B600080BD00BF00C0004080B582B000AF03461A
:101B7000FB71FB79112B05D0FB79132B02D0FB797C
:101B8000122B0AD1094B01221A72084AFB795372AF
:101B90000748122103F0DEF904E0FB7904481946F6
:101BA00003F0D8F90837BD4680BD00BF084B0020C0
:101BB00000C0004080B582B000AF054803F09CF93A
:101BC00078607B68DBB218460837BD4680BD00BF31
:101BD00000C0004080B582B000AF0346FB71FB79C6
:101BE000002B04D00548112103F0B4F903E00348A9
:101BF000132103F0AFF90837BD4680BD00C0004097
:101C000080B582B000AF1348012103F045FA786037
:101C1000152002F06DF87B6803F02003002B05D03F
:101C2000FEF79AFF00F018F8FEF78CFF7B6803F0D0
:101C30001003002B04D17B6803F04003002B05D078
:101C4000FEF7A8FF00F02CF8FEF79AFF0837BD4614
:101C500080BD00BF00C0004080B500AFFFF77AFF35
:101C60000D4B1B7A002B0CD00B4B00221A720A4B27
:101C70005B7A83F01003DBB20848194603F06AF977
:101C800006E0054B1B68002B02D0034B1B689847EE
:101C90000023184680BD00BF084B002000C0004054
:101CA00080B500AFFFF74CFF044B5B68002B02D000
:101CB000024B5B6898470023184680BD084B002004
:101CC00080B584B000AF78600B46FB704F4BBB60B3
:101CD0004F4B01221A700023FB730AE0FB7BBA68AA
:101CE0001344FA7B79680A4412781A70FB7B01333B
:101CF000FB73FB7B0F2BF1D99F2001F071FF454A4D
:101D0000444B1B6843F001031360434A424B1B687A
:101D100043F003031360414A404B1B6823F0010367
:101D200013603E4A3D4B1B6843F0010313603C4A7D
:101D30003B4B1B6843F0030313603A4A394B1B6863
:101D400003F003031360374A364B1B6843F001036B
:101D50001360354AFB78012101FA03F31360334A1B
:101D6000324B1B6843F001031360314ABB681360B8
:101D7000304B10221A6000BF2F4B1B6803F0010389
:101D8000002BF8D02C4B1B68002B07DA244A244B7D
:101D90001B6843F000431360032333E0264B1B68AA
:101DA00003F08043002B07D01D4A1D4B1B6843F0F6
:101DB00080431360022325E0194A194B1B6843F046
:101DC00003031360154B00221A601C4B1B6803F0C1
:101DD0000703012B04D00E4B00221A70022311E0DE
:101DE0000023FB7307E0FB7BBA68134400221A70E0
:101DF000FB7B0133FB73FB7B0F2BF4D9044B0022DD
:101E00001A70002318461037BD4680BDB04A002026
:101E1000AC4A002080B7084084B7084000B70840AB
:101E200088B7084008B4084000B4084000B0084033
:101E300004B008400CB0084090B7084004B4084013
:101E400080B584B000AFF860B96011461A460B4601
:101E5000FB711346BB712C4B02221A702B4B0122D3
:101E60001A602B4B01221A603B7E002B05D09F206D
:101E700001F03EFF9F2001F069FE264B02221A600E
:101E8000254A254B1B6843F003031360234AFB7963
:101E9000136000BF214B1B68002BFADB204B1B6833
:101EA00003F00053002B07D01B4A1B4B1B6843F069
:101EB00000531360012322E0BB79002B03D0194BA0
:101EC0000C221A6002E0174B08221A60164B1022EF
:101ED0001A60164B00221A60154B01221A60154A2F
:101EE000FB681360144B10221A60144B01221A6015
:101EF000134ABB681360134B10221A600023184664
:101F00001037BD4680BD00BFAC4A002080B70840F6
:101F100084B7084000B7084088B708400CB40840B0
:101F200090B7084050B5084054B5084058B508402F
:101F300000B0084004B008400CB0084020B0084091
:101F400024B008402CB0084080B400AF0F4B1B7881
:101F5000DBB203F00103002B0FD10C4B1B780B4BB2
:101F60001B78DBB203F08043002B06D1074B1B78B4
:101F7000DBB203F00053002B01D0012300E000236B
:101F8000DBB21846BD465DF8047B704790B7084049
:101F900080B500AF1E4B1B68002B07DA1D4A1D4B96
:101FA0001B6843F00043136003232EE0184B1B68AB
:101FB00003F08043002B07D0164A164B1B6843F0F2
:101FC00080431360022320E0114B1B6803F0005391
:101FD000002B07D00F4A0F4B1B6843F000531360D0
:101FE000012312E09F2001F0FBFD0A4A094B1B6808
:101FF00043F003031360084B00221A60074B0022D2
:102000001A60074B00221A700023184680BD00BFDB
:1020100090B7084088B7084000B7084050B508405E
:10202000AC4A002080B58AB000AFBA607B6003463E
:10203000FB730B46BB73704B03221A709F2001F099
:10204000CFFD6E4B01221A606D4B03221A606D4B5F
:1020500002221A606C4A6C4B1B6843F00303136046
:102060006A4A97F83C30136000BF684B1B68002B2E
:10207000FADB674B1B6803F00053002B07D0624A62
:10208000614B1B6843F0005313600123AFE097F8E6
:102090004430013BDBB23B74002387F8233011E06E
:1020A00097F82330013397F82320B9680A4412784F
:1020B00007F128010B4403F8182C97F8233001335B
:1020C00087F8233097F823300C2BE9D997F8443060
:1020D000032B01D100237B770023BB770023FB7701
:1020E0004C4A07F110031B6813604B4A7B6913606D
:1020F0004A4ABB6913604A4AFB69136097F8443047
:10210000013BDB047B62BB7B012B07D9BB7B023B22
:102110005B109B051A467B6A13437B627B6A43F420
:1021200080237B627B6A43F008037B627B6A43F017
:1021300004037B627B6A43F040037B627B6A43F06B
:1021400000537B627B6A43F4C0737B62354A7B6ACF
:102150001360354A3B8E1360344B00221A60344AB8
:102160003B8F13603B8F002B1BD0324B01221A6038
:10217000314A7B6B1360314A3B8F136000BF244BA5
:102180001B6803F00203002BF8D0214B1B68002BC7
:1021900007DA1D4A1C4B1B6843F0004313600323FE
:1021A00025E0194B03221A6097F84830002B05D020
:1021B0009F2001F09DFD9F2001F0C8FC104B0122E3
:1021C0001A60FB7B002B11D01A4B01221A601A4AAD
:1021D0007B681360194A3B8E1360194B01221A6009
:1021E000184A7B681360184A3B8E13600023184618
:1021F0002837BD4680BD00BFAC4A002080B70840EC
:1022000084B7084000B7084088B708400CB40840BD
:1022100090B7084040B5084044B5084048B508406C
:102220004CB5084050B5084054B5084058B5084072
:102230005CB5084000B0084004B008400CB008404D
:1022400020B0084024B008402CB0084080B400AF53
:102250000F4B1B78DBB203F00103002B0FD10C4BAB
:102260001B780B4B1B78DBB203F08043002B06D1AD
:10227000074B1B78DBB203F00053002B01D0012386
:1022800000E00023DBB21846BD465DF8047B7047D2
:1022900090B7084080B588B000AF03463A60FB7144
:1022A0000B46BB80374B1B68002B07DA364A364B90
:1022B0001B6843F00043136003235EE0314B1B684F
:1022C00003F08043002B07D02F4A2F4B1B6843F0AD
:1022D00080431360022350E02A4B1B6803F0005335
:1022E000002B07D0284A284B1B6843F0005313608B
:1022F000012342E09F2001F073FC244B00221A606E
:1023000000BF234B1B6803F08043002BF8D007F17C
:102310000C03204A12681A6007F10C0304331E4AAA
:1023200012681A6007F10C0308331C4A12681A601D
:1023300007F10C030C331A4A12681A60124A124B46
:102340001B6843F0030313600023FB770DE0FB7F62
:102350003A681344FA7F07F120010A4412F8142C5A
:10236000D2B21A70FB7F0133FB77FA7FFB799A4276
:10237000EDD30C4B00221A70002318462037BD46BF
:1023800080BD00BF90B7084088B7084000B708403C
:1023900050B5084070B5084074B5084078B508409D
:1023A0007CB50840AC4A002080B58AB000AFBA6066
:1023B0007B600346FB730B46BB73BB7B9BB23A8EC1
:1023C000D31A3B846A4B03221A706A4B01221A60AB
:1023D000694B03221A60694B02221A60684B032280
:1023E0001A60684A97F83C30136000BF654B1B6861
:1023F000002BFADB644B1B6803F00053002B07D063
:102400005F4A5F4B1B6843F0005313600123ABE04E
:1024100097F84430013BDBB23B74002387F823304C
:1024200011E097F82330013397F82320B9680A4464
:10243000127807F128010B4403F8182C97F8233081
:10244000013387F8233097F823300C2BE9D997F81C
:102450004430032B01D100237B770023BB7700237B
:10246000FB774A4A07F110031B681360484A7B69EF
:102470001360484ABB691360474AFB69136097F8C9
:102480004430013BDB047B62BB7B012B07D9BB7B68
:10249000023B5B109B051A467B6A13437B627B6A97
:1024A00043F480237B627B6A43F008037B627B6A90
:1024B00043F040037B627B6A43F000537B627B6A9C
:1024C00043F4C0737B62354A7B6A1360344A3B8CA9
:1024D0001360344B00221A60334A3B8F13603B8FEA
:1024E000002B1BD0314B01221A60314A7B6B1360E9
:1024F000304A3B8F136000BF234B1B6803F002037D
:10250000002BF8D0204B1B68002B07DA1C4A1C4B11
:102510001B6843F000431360032325E0184B03229C
:102520001A6097F84830002B05D09F2001F0E0FB9F
:102530009F2001F00BFB104B01221A60FB7B002B4C
:1025400011D01A4B01221A60194A7B681360194A8C
:102550003B8C1360184B01221A60184A7B68136089
:10256000174A3B8C1360002318462837BD4680BDB0
:10257000AC4A002080B7084084B7084000B7084044
:1025800088B708400CB4084090B7084040B50840F0
:1025900044B5084048B508404CB5084050B508401F
:1025A00054B5084058B508405CB5084000B0084034
:1025B00004B008400CB0084020B0084024B00840E7
:1025C0002CB0084080B500AFFFF740FE0346184628
:1025D00080BD00BF80B58AB000AFB9607B600346A4
:1025E000FB731346BB81FB7B9BB2BA89D31ABB84B6
:1025F000494B1B68002B07DA484A484B1B6843F0DD
:1026000000431360032383E0434B1B6803F08043C4
:10261000002B07D0414A414B1B6843F080431360B5
:10262000022375E03C4B1B6803F00053002B07D0DE
:102630003A4A3A4B1B6843F000531360012367E0AA
:102640009F2001F0CDFA364B00221A6000BF354BB7
:102650001B6803F08043002BF8D007F11403324AC3
:1026600012681A6007F114030433304A12681A60C2
:1026700007F1140308332E4A12681A6007F1140395
:102680000C332C4A12681A60244A244B1B6843F00E
:1026900003031360002387F8273011E097F82730F1
:1026A0007A68134497F8272007F128010A4412F8A2
:1026B000142CD2B21A7097F82730013387F82730DC
:1026C00097F82720FB7B9A42E8D3002387F826302F
:1026D00015E097F826307A6813441A78B98C97F881
:1026E00026300B441946BB680B441B789A4201D034
:1026F00004230DE097F82630013387F8263097F849
:102700002620FB7B9A42E4D30B4B00221A70002355
:1027100018462837BD4680BD90B7084088B70840A6
:1027200000B7084050B5084070B5084074B508407F
:1027300078B508407CB50840AC4A002080B485B02C
:1027400000AF78607B68134A934210D0114A9342DD
:1027500003D8114A934207D012E0104A934209D09D
:102760000F4A934209D00BE01023FB600AE01123CB
:10277000FB6007E01223FB6004E01323FB6001E031
:10278000002300E0FB6818461437BD465DF8047B63
:10279000704700BF00A00D4000900D4000B00D40FC
:1027A00000C00D4080B485B000AFF8600B467A6081
:1027B000FB72FB6803F5806319467B6803F0010335
:1027C000002B06D0FB6803F580631A68FB7A13437D
:1027D00006E0FB6803F580631B68FA7AD243134076
:1027E0000B60FB6803F5846319467B6803F0020302
:1027F000002B06D0FB6803F584631A68FB7A134349
:1028000006E0FB6803F584631B68FA7AD243134041
:102810000B601437BD465DF8047B704780B485B00B
:1028200000AF78600B46FB70FB78012202FA03F3DD
:10283000FB707B6803F580631B68FB607B6803F5B6
:1028400084631B68BB60FA78FB681340002B14BFDD
:1028500001230023DBB21946FA78BB681340002B32
:1028600001D0022300E000230B4318461437BD4675
:102870005DF8047B704700BF80B485B000AFF8609E
:102880000B467A60FB72FB6803F5816319467B682F
:1028900003F00103002B06D0FB6803F581631A687F
:1028A000FB7A134306E0FB6803F581631B68FA7A41
:1028B000D24313400B60FB6803F2044319467B6864
:1028C00003F00203002B06D0FB6803F204431A68EE
:1028D000FB7A134306E0FB6803F204431B68FA7AB1
:1028E000D24313400B60FB6803F20C4319467B682C
:1028F00003F00403002B06D0FB6803F20C431A68B4
:10290000FB7A134306E0FB6803F20C431B68FA7A78
:10291000D24313400B601437BD465DF8047B70470B
:1029200080B487B000AF78600B46FB70FB78012263
:1029300002FA03F3FB707B6803F581631B687B611C
:102940007B6803F204431B683B617B6803F20C4322
:102950001B68FB60FA787B691340002B14BF0123CE
:102960000023DBB21946FA783B691340002B01D0F3
:10297000022300E0002341EA0302F978FB680B40E0
:10298000002B01D0042300E00023134318461C371A
:10299000BD465DF8047B704780B483B000AF7860BB
:1029A0000B46FB707B6803F5826319467B6803F571
:1029B00082631A68FB7813430B600C37BD465DF8E1
:1029C000047B704780B483B000AF78600B46FB7027
:1029D0007B6803F5826319467B6803F582631B6895
:1029E000FA78D24313400B600C37BD465DF8047B88
:1029F000704700BF80B483B000AF78600B46FB70B7
:102A0000FB78002B04D07B6803F583631B6803E02D
:102A10007B6803F214431B6818460C37BD465DF80B
:102A2000047B704780B483B000AF78600B46FB70C6
:102A30007B6803F21C431A46FB7813600C37BD46D3
:102A40005DF8047B704700BF80B582B000AF78604E
:102A500039607868FFF772FE78607868396800F04E
:102A6000ABFF786801F072F80837BD4680BD00BF43
:102A700080B582B000AF78607868FFF75FFE78605D
:102A8000786801F0ADF8786800F0C8FF0837BD46F7
:102A900080BD00BF80B483B000AF78600B46FB7090
:102AA000FB789B001A467B6813441B6818460C375A
:102AB000BD465DF8047B704780B483B000AF78609A
:102AC0000B46FB701346BB70FB789B001A467B6875
:102AD00013441A46BB7813600C37BD465DF8047B7F
:102AE000704700BF80B582B000AF78600B46FB70C6
:102AF000FB78786819460022FFF754FEFB78786867
:102B00001946002201F0A2FA0837BD4680BD00BF79
:102B100080B582B000AF78600B46FB70FB787868B8
:102B200019460122FFF73EFEFB787868194600221D
:102B300001F08CFA0837BD4680BD00BF80B582B079
:102B400000AF78600B46FB70FB787868194602226C
:102B5000FFF728FEFB7878681946002201F076FA24
:102B60000837BD4680BD00BF80B582B000AF786039
:102B70000B46FB70FB78786819460222FFF712FEBD
:102B8000FB7878681946002201F060FA0837BD46E4
:102B900080BD00BF80B582B000AF78600B46FB708F
:102BA000FB78786819460222FFF7FCFDFB7878680D
:102BB0001946002201F04AFA0837BD4680BD00BF21
:102BC00080B582B000AF78600B46FB70FB78786808
:102BD00019460222FFF7E6FDFB78786819460022C5
:102BE00001F034FA0837BD4680BD00BF80B582B021
:102BF00000AF78600B46FB70FB78786819460222BC
:102C0000FFF7D0FDFB7878681946082201F01EFA1C
:102C10000837BD4680BD00BF80B487B000AFF86004
:102C20000B467A60FB7200237B61FB681D4A93426E
:102C300001D100237B61FB681B4A934201D1082329
:102C40007B61FB68194A934201D110237B61FB68C9
:102C5000174A934201D118237B61FA7A7B6902FA01
:102C600003F33B617B68012B0BD1FB6803F2047318
:102C70001946FB6803F204731A683B6913430B603F
:102C80000BE0FB6803F204731946FB6803F204735C
:102C90001A683B69DB4313400B601C37BD465DF887
:102CA000047B704700900D4000A00D4000B00D4027
:102CB00000C00D4080B485B000AF78600B46FB705B
:102CC0000023FB607B68174A934201D10023FB601D
:102CD0007B68154A934201D10823FB607B68134A45
:102CE000934201D11023FB607B68114A934201D1CA
:102CF0001823FB60FA78FB6813441A4601239340BB
:102D0000BB607B6803F204731A68BB681340002B36
:102D100001D0012300E0002318461437BD465DF8BA
:102D2000047B704700900D4000A00D4000B00D40A6
:102D300000C00D4080B485B000AF78600B46FB70DA
:102D40000023FB607B68164A934201D10023FB609D
:102D50007B68144A934201D10823FB607B68124AC6
:102D6000934201D11023FB607B68104A934201D14A
:102D70001823FB60FA78FB6802FA03F3BB607B68F8
:102D800003F5E26319467B6803F5E2631A68BB68E2
:102D900013430B601437BD465DF8047B704700BFDA
:102DA00000900D4000A00D4000B00D4000C00D404F
:102DB00080B485B000AF78600B46FB700023FB60E9
:102DC0007B68164A934201D10023FB607B68144A5A
:102DD000934201D10823FB607B68124A934201D1E0
:102DE0001023FB607B68104A934201D11823FB60DB
:102DF000FA78FB6802FA03F3BB607B6803F5E263D1
:102E000019467B6803F5E2631A68BB68DB4313402D
:102E10000B601437BD465DF8047B704700900D4091
:102E200000A00D4000B00D4000C00D4080B485B042
:102E300000AF78600B46FB700023FB607B68184A8C
:102E4000934201D10023FB607B68164A934201D173
:102E50000823FB607B68144A934201D11023FB6076
:102E60007B68124A934201D11823FB60FB78002B48
:102E700008D07B6803F5E3631A68FB6822FA03F362
:102E8000DBB207E07B6803F5E4631A68FB6822FAAB
:102E900003F3DBB218461437BD465DF8047B704778
:102EA00000900D4000A00D4000B00D4000C00D404E
:102EB00080B485B000AF78600B46FB700023FB60E8
:102EC0007B68164A934201D10023FB607B68144A59
:102ED000934201D10823FB607B68124A934201D1DF
:102EE0001023FB607B68104A934201D11823FB60DA
:102EF000FA78FB6802FA03F3BB607B6803F5E363CF
:102F000019467B6803F5E3631A68BB6813430B60DB
:102F10001437BD465DF8047B704700BF00900D403C
:102F200000A00D4000B00D4000C00D4080B483B043
:102F300000AF78600549054B1A687B6813430B6046
:102F40000C37BD465DF8047B704700BF94200D40F0
:102F500080B483B000AF78600549054B1A687B6880
:102F6000DB4313400B600C37BD465DF8047B7047B4
:102F700094200D4080B483B000AF786039607B68E6
:102F80000C3318467B680C331A68396840F2011319
:102F90000B40134303600C37BD465DF8047B70475C
:102FA00080B483B000AF786039607B680C3318461A
:102FB0007B680C331A68396840F201130B40DB431D
:102FC000134003600C37BD465DF8047B704700BFBB
:102FD00080B483B000AF786039607B680C331A46E8
:102FE0007B680C331B6823F4807323F001031360A8
:102FF0007B683A68120E1A607B6804331A463B6895
:10300000DBB243F4007313607B6808331A463B68F5
:103010001B0ADBB243F4007313600C37BD465DF846
:10302000047B704780B485B000AFF860B960134688
:10303000FB71BA6844F240031340BB60FB680C3379
:103040001946FB79002B05D0FB680C331A68BB6866
:10305000134305E0FB680C331A68BB68DB4313407D
:103060000B601437BD465DF8047B704780B485B0B3
:1030700000AFF860B9601346FB71BA6842F22003F2
:103080001340BB60FB680C331946FB79002B05D05D
:10309000FB680C331A68BB68134305E0FB680C330C
:1030A0001A68BB68DB4313400B601437BD465DF8FC
:1030B000047B704780B485B000AFF860B9607A6077
:1030C000BA6840F60C431340BB60FB680C331846EB
:1030D000FB680C331A68BB68DB431A407968BB682D
:1030E0000B40134303601437BD465DF8047B704703
:1030F00080B485B000AFF860B9601346FB71BA6860
:1031000040F202231340BB60FB680C331946FB7985
:10311000002B05D0FB680C331A68BB68134305E02D
:10312000FB680C331A68BB68DB4313400B60143731
:10313000BD465DF8047B704780B485B000AFF86091
:10314000B9601346FB71BB68DBB2002B15D0FB796D
:10315000002B09D0FB6804331A46FB6804331B6854
:1031600043F04003136008E0FB6804331A46FB6831
:1031700004331B6823F040031360BB6803F47F43F0
:10318000002B15D0FB79002B09D0FB6808331A46B9
:10319000FB6808331B6843F04003136008E0FB68DA
:1031A00008331A46FB6808331B6823F0400313609A
:1031B0001437BD465DF8047B704700BF80B485B00E
:1031C00000AFF860B9607A60BB68DBB2002B04D056
:1031D000FB6838331A467B681360BB6803F47F438F
:1031E000002B04D0FB683C331A467B68136014370D
:1031F000BD465DF8047B704780B483B000AF786053
:1032000039603B68FF2B03D17B6838331B6802E0D1
:103210007B683C331B6818460C37BD465DF8047B61
:10322000704700BF80B485B000AFF860B9607A60C5
:10323000BB68DBB2002B04D0FB6840331A467B68C6
:103240001360BB6803F47F43002B04D0FB68443356
:103250001A467B6813601437BD465DF8047B7047DF
:1032600080B483B000AF786039603B68FF2B03D136
:103270007B6840331B6802E07B6844331B68184658
:103280000C37BD465DF8047B704700BF80B485B045
:1032900000AFF860B9607A60BB68DBB2002B04D085
:1032A000FB6828331A467B681360BB6803F47F43CE
:1032B000002B04D0FB682C331A467B68136014374C
:1032C000BD465DF8047B704780B483B000AF786082
:1032D00039603B68FF2B03D17B6828331B6802E011
:1032E0007B682C331B6818460C37BD465DF8047BA1
:1032F000704700BF80B483B000AF786039603B682E
:10330000FF2B03D17B6848331B6802E07B684C339A
:103310001B6818460C37BD465DF8047B704700BF3C
:1033200080B485B000AFF860B9607A60BB68DBB28A
:10333000002B04D0FB6830331A467B681360BB68EF
:1033400003F47F43002B04D0FB6834331A467B68B8
:1033500013601437BD465DF8047B704780B483B0BA
:1033600000AF786039603B68FF2B03D17B68303356
:103370001B6802E07B6834331B6818460C37BD4677
:103380005DF8047B704700BF80B584B000AFF86083
:10339000B9607A60FB68184A93420DD0FB68174AFF
:1033A000934207D0FB68164A934201D1272304E0D9
:1033B000332302E0252300E02323FB60BB68DBB25C
:1033C000002B06D0F868796800F0F6FAF86800F08B
:1033D000BDFBBB6803F47F43002B0AD0FB680133BD
:1033E0001846796800F0E8FAFB680133184600F0E7
:1033F000ADFB1037BD4680BD000003400010034008
:103400000020034080B582B000AF786039607B68EF
:10341000174A93420DD07B68164A934207D07B68C7
:10342000154A934201D1272304E0332302E02523E8
:1034300000E023237B603B68DBB2002B05D078687B
:1034400000F0CEFB786800F0E9FA3B6803F47F43B4
:10345000002B09D07B680133184600F0C1FB7B6864
:103460000133184600F0DAFA0837BD4680BD00BFC8
:1034700000000340001003400020034080B483B0EC
:1034800000AF786039607B68183319467B68183361
:103490001A683B6813430B600C37BD465DF8047B2C
:1034A000704700BF80B483B000AF786039607B683C
:1034B000183319467B6818331A683B68DB4313409E
:1034C0000B600C37BD465DF8047B704780B483B059
:1034D00000AF78600B46FB70FB78002B03D07B6855
:1034E00020331B6802E07B681C331B6818460C37CE
:1034F000BD465DF8047B704780B483B000AF786050
:1035000039607B6824331A463B6813600C37BD462C
:103510005DF8047B704700BF80B483B000AF786073
:1035200039607B6810331A463B6813600C37BD4620
:103530005DF8047B704700BF80B584B000AF786051
:103540000B46FB7000F036F8FB78002B02D00E4BD8
:10355000FB6001E00D4BFB60FA6813469B001344CF
:103560009B001A467B681344591EFA6813469B0059
:1035700013449B00B1FBF3F3013BBB60044ABB68FF
:1035800013601037BD4680BD801A0600A08601007A
:103590000C00024080B582B000AF0346FB7100F022
:1035A00017F8034AFB7913600837BD4680BD00BF9A
:1035B0000008024080B400AF044A044B1B6843F08B
:1035C00010031360BD465DF8047B70472000024085
:1035D00080B400AF064A064B1B6843F0200313601B
:1035E000044B01221A60BD465DF8047B704700BFA2
:1035F000200002400408024080B400AF044A044B9B
:103600001B6823F010031360BD465DF8047B704710
:103610002000024080B400AF064B00221A60064A28
:10362000054B1B6823F020031360BD465DF8047B47
:10363000704700BF040802402000024080B582B0FD
:1036400000AF78601820796800F0B6F9182000F013
:103650007DFA0837BD4680BD80B500AF182000F068
:10366000BFFA182000F0DAF980BD00BF80B400AFC7
:10367000034B01221A60BD465DF8047B704700BF12
:103680001000024080B400AF044A044B1B6843F0B2
:1036900001031360BD465DF8047B70470C080240CF
:1036A00080B483B000AF78600549054B1A687B6829
:1036B00013430B600C37BD465DF8047B704700BFB9
:1036C0000C08024080B400AF034B00221A60BD46D4
:1036D0005DF8047B704700BF1000024080B400AF6B
:1036E000044A044B1B6823F001031360BD465DF8D8
:1036F000047B70470C08024080B483B000AF786050
:103700000549054B1A687B68DB4313400B600C3797
:10371000BD465DF8047B70470C08024080B483B05E
:1037200000AF0346FB71FB79002B07D00A4B1B68E7
:10373000002B14BF01230023DBB206E0074B1B68FC
:10374000002B14BF01230023DBB218460C37BD4603
:103750005DF8047B704700BF18000240140002406F
:1037600080B483B000AF0346FB71FB79002B07D018
:103770000A4B1B68002B14BF01230023DBB206E0B9
:10378000074B1B68002B14BF01230023DBB2184634
:103790000C37BD465DF8047B704700BF140802403B
:1037A0001008024080B483B000AF0346FB71FB7980
:1037B000002B02D0054B1B6801E0054B1B68184627
:1037C0000C37BD465DF8047B704700BF140802400B
:1037D0001008024080B400AF044B01221A60044B71
:1037E00001221A60BD465DF8047B70471C00024050
:1037F0001800024080B400AF034B01221A60BD469E
:103800005DF8047B704700BF1808024080B483B0A5
:1038100000AF7860034A7B6813600C37BD465DF8E3
:10382000047B70471808024080B483B000AF0346A1
:103830000A46FB711346BB710549FB795A00BB79F7
:1038400013430B600C37BD465DF8047B704700BF27
:103850000000024080B400AF064B1B6803F0010378
:10386000002B01D0012300E000231846BD465DF87F
:10387000047B70470400024080B400AF064B1B6815
:1038800003F04003002B01D0012300E00023184681
:10389000BD465DF8047B70470400024080B483B0ED
:1038A00000AF7860034A7B6813600C37BD465DF853
:1038B000047B70470400024080B483B000AF0D4B1E
:1038C0001B687B607B6803F00103002B01D00023A1
:1038D00009E07B6803F01203002B03D07B6803F040
:1038E0001C0300E0002318460C37BD465DF8047B3E
:1038F000704700BF0400024080B483B000AF0346AD
:10390000FB71044AFB7913600C37BD465DF8047BFC
:10391000704700BF0800024080B400AF034B1B6833
:103920001846BD465DF8047B704700BF08000240A2
:1039300080B400AF034B1B681846BD465DF8047B9E
:10394000704700BF0408024080B483B000AF034654
:10395000FB71044AFB7913600C37BD465DF8047BAC
:10396000704700BF0808024080B400AF034B1B68DB
:103970001846BD465DF8047B704700BF080802404A
:1039800080B400AFFEE700BF80B500AF01F088FC57
:103990000346002B14BF01230023DBB2184680BD71
:1039A00080B500AF01F06EFC0346002B14BF01236D
:1039B0000023DBB2184680BD80B485B000AF7860CC
:1039C0003960144B1B68144A934218D0114B1B6882
:1039D000BB600023FB600CE0FB689A00BB681344EB
:1039E0001B6819460C4AFB6842F82310FB68013338
:1039F000FB60FB68A22BEFD9064B074A1A60064909
:103A00007B683A6841F823201437BD465DF8047B93
:103A1000704700BF08ED00E00040002080B483B094
:103A200000AF7860044A7B68044942F823100C37E1
:103A3000BD465DF8047B70470040002081392000BE
:103A400080B483B000AF7860074A08497B6851F8BA
:103A5000233043F0BF6343F4003313600C37BD469B
:103A60005DF8047B704700BF0CED00E0B45520000A
:103A700080B483B000AF0E4B1B6803F4E0633B607F
:103A800000237B600AE00B4A7B6852F823203B68E6
:103A90009A4200D105E07B6801337B607B68072B8D
:103AA000F1D97B6818460C37BD465DF8047B70473A
:103AB0000CED00E0B455200080B485B000AF786014
:103AC0000B46FB707B689B08134A52F823301B6837
:103AD000FB607B6803F00303DB001A46FF2393407F
:103AE000DB431A46FB681340FB60FB787A6802F000
:103AF0000302D20093401A46FB681343FB607B68C5
:103B00009B08054A52F823301A46FB6813601437A5
:103B1000BD465DF8047B7047D455200080B483B067
:103B200000AF78607B689B08074A52F823301B6817
:103B30007A6802F00302D200D340DBB218460C3799
:103B4000BD465DF8047B7047D455200080B483B037
:103B500000AF78607B68042B06D11E4A1D4B1B68A2
:103B600043F4803313602FE07B68052B06D1194A9C
:103B7000184B1B6843F40033136025E07B68062B69
:103B800006D1144A134B1B6843F4802313601BE0D7
:103B90007B680F2B06D1104A0F4B1B6843F00203C2
:103BA000136011E07B680F2B0ED97B68103B5B091B
:103BB0000A4A52F8233019467B68103B03F01F0372
:103BC000012202FA03F30B600C37BD465DF8047B5B
:103BD000704700BF24ED00E010E000E078562000C0
:103BE00080B483B000AF78607B68042B06D11E4A96
:103BF0001D4B1B6823F4803313602FE07B68052B7B
:103C000006D1194A184B1B6823F40033136025E0D2
:103C10007B68062B06D1144A134B1B6823F48023C0
:103C200013601BE07B680F2B06D1104A0F4B1B68FB
:103C300023F00203136011E07B680F2B0ED97B6821
:103C4000103B5B090A4A52F8233019467B68103B47
:103C500003F01F03012202FA03F30B600C37BD4689
:103C60005DF8047B704700BF24ED00E010E000E049
:103C70008C56200080B483B000AF78607B68022B44
:103C800006D1194A184B1B6843F00043136025E026
:103C90007B680E2B06D1144A134B1B6843F08053EC
:103CA00013601BE07B680F2B06D10F4A0E4B1B687D
:103CB00043F08063136011E07B680F2B0ED97B68A3
:103CC000103B5B09094A52F8233019467B68103BC8
:103CD00003F01F03012202FA03F30B600C37BD4609
:103CE0005DF8047B704700BF04ED00E0A0562000A3
:103CF00080B483B000AF78607B680E2B06D1144A85
:103D0000134B1B6843F0006313601BE07B680F2BB1
:103D100006D10F4A0E4B1B6843F00073136011E08D
:103D20007B680F2B0ED97B68103B5B09094A52F860
:103D3000233019467B68103B03F01F03012202FA6F
:103D400003F30B600C37BD465DF8047B704700BF82
:103D500004ED00E0B456200080B582B000AF78607A
:103D6000786801F0ABFA0837BD4680BD80B500AF7A
:103D700001F0A8FA0346184680BD00BF80B400AF2A
:103D8000044A044B1B6843F001031360BD465DF811
:103D9000047B704798200D4080B400AF044A044B68
:103DA0001B6823F001031360BD465DF8047B704778
:103DB00098200D4080B400AF064B1B6803F0010350
:103DC000002B01D0012300E000231846BD465DF81A
:103DD000047B704798200D4080B489B000AFF86034
:103DE0000B467A60FB72254BFB610023BB613CE014
:103DF000FA7ABB6942FA03F303F001037B617B6942
:103E0000002B2FD0FB681E4A934213D01C4A9342CA
:103E100003D81C4A934207D01EE01B4A93420FD09E
:103E20001A4A934212D017E0194ABB6952F823305C
:103E3000FB6114E0174ABB6952F82330FB610EE0C6
:103E4000154ABB6952F82330FB6108E0134ABB698D
:103E500052F82330FB6102E0084BFB6100BFFB69B5
:103E60007A681A60BB690133BB61BB69072BBFD994
:103E70002437BD465DF8047B704700BF00400D400D
:103E800000A00D4000900D4000B00D4000C00D405E
:103E9000485720006857200088572000A857200066
:103EA00080B487B000AFF8600B467A60FB720023E5
:103EB0007B61FB68614A934237D0604A934203D8E2
:103EC0005F4A934207D0AEE05E4A934257D05E4AC3
:103ED00093427ED0A7E0FB7A012B01D100237B61C6
:103EE000FB7A022B01D101237B61FB7A042B01D1E8
:103EF00002237B61FB7A082B01D103237B61FB7AD0
:103F0000102B01D104237B61FB7A202B01D10523E7
:103F10007B61FB7A402B01D106237B61FB7A802BEE
:103F200002D107237B6181E080E0FB7A012B01D184
:103F300008237B61FB7A022B01D109237B61FB7A89
:103F4000042B01D10A237B61FB7A082B01D10B23BF
:103F50007B61FB7A102B01D10C237B61FB7A202B38
:103F600001D10D237B61FB7A402B01D10E237B61B4
:103F7000FB7A802B02D10F237B6157E056E0FB7A5E
:103F8000012B01D110237B61FB7A022B01D111237C
:103F90007B61FB7A042B01D112237B61FB7A082B16
:103FA00001D113237B61FB7A102B01D114237B6198
:103FB000FB7A202B01D115237B61FB7A402B01D1A9
:103FC00016237B61FB7A802B02D117237B612DE0C6
:103FD0002CE0FB7A012B01D118237B61FB7A022BA9
:103FE00001D119237B61FB7A042B01D11A237B6158
:103FF000FB7A082B01D11B237B61FB7A102B01D1AB
:104000001C237B61FB7A202B01D11D237B61FB7A72
:10401000402B01D11E237B61FB7A802B02D11F2311
:104020007B6103E002E000237B6100BF7B687A696B
:104030001A601C37BD465DF8047B704700A00D4038
:1040400000900D4000B00D4000C00D4080B489B01C
:1040500000AFF8600B467A60FB72254BFB610023D2
:10406000BB613CE0FA7ABB6942FA03F303F0010357
:104070007B617B69002B2FD0FB681E4A934213D0D3
:104080001C4A934203D81C4A934207D01EE01B4AA5
:1040900093420FD01A4A934212D017E0194ABB69D3
:1040A00052F82330FB6114E0174ABB6952F8233001
:1040B000FB610EE0154ABB6952F82330FB6108E052
:1040C000134ABB6952F82330FB6102E0114BFB61DC
:1040D00000BFFB697A681A60BB690133BB61BB69C9
:1040E000072BBFD92437BD465DF8047B704700BF5E
:1040F00000400D4000A00D4000900D4000B00D406C
:1041000000C00D40C8562000E85620000857200087
:104110002857200080400D4080B485B000AF786003
:104120000B46FB70634BFB607B68634A934237D05E
:10413000614A934203D8614A934207D0AEE0604A95
:10414000934257D05F4A93427ED0A7E0FB78012B81
:1041500001D1584BFB60FB78022B01D15A4BFB601D
:10416000FB78042B01D1594BFB60FB78082B01D164
:10417000574BFB60FB78102B01D1564BFB60FB7853
:10418000202B01D1544BFB60FB78402B01D1534BCA
:10419000FB60FB78802B02D1514BFB6081E080E01B
:1041A000FB78012B01D14F4BFB60FB78022B01D137
:1041B0004D4BFB60FB78042B01D14C4BFB60FB7833
:1041C000082B01D14A4BFB60FB78102B01D1494BE6
:1041D000FB60FB78202B01D1474BFB60FB78402B29
:1041E00001D1464BFB60FB78802B02D1444BFB6036
:1041F00057E056E0FB78012B01D1424BFB60FB7886
:10420000022B01D1404BFB60FB78042B01D13F4BCB
:10421000FB60FB78082B01D13D4BFB60FB78102B3A
:1042200001D13C4BFB60FB78202B01D13A4BFB606A
:10423000FB78402B01D1394BFB60FB78802B02D1FE
:10424000374BFB602DE02CE0FB78012B01D1354B87
:10425000FB60FB78022B01D1334BFB60FB78042B16
:1042600001D1324BFB60FB78082B01D1304BFB6056
:10427000FB78102B01D12F4BFB60FB78202B01D159
:104280002D4BFB60FB78402B01D12C4BFB60FB7866
:10429000802B02D12A4BFB6003E002E0054BFB6060
:1042A00000BFFB681B6818461437BD465DF8047BE9
:1042B000704700BF80400D4000A00D4000900D40B1
:1042C00000B00D4000C00D4084400D4088400D40BE
:1042D0008C400D4090400D4094400D4098400D4062
:1042E0009C400D40A0400D40A4400D40A8400D4012
:1042F000AC400D40B0400D40B4400D40B8400D40C2
:10430000BC400D40C0400D40C4400D40C8400D4071
:10431000CC400D40D0400D40D4400D40D8400D4021
:10432000DC400D40E0400D40E4400D40E8400D40D1
:10433000EC400D40F0400D40F4400D40F8400D4081
:10434000FC400D4080B582B000AF7860A120796854
:10435000FFF732FBA120FFF7F9FB0837BD4680BD10
:1043600080B500AFA120FFF73BFCA120FFF756FB73
:1043700080BD00BF80B483B000AF0E4B1B687B6074
:104380000D4B1B681B027A6813437B600B4B1B6849
:104390001B047A6813437B60094B1B681B067A6811
:1043A00013437B607B6818460C37BD465DF8047B81
:1043B000704700BF40500D4044500D4048500D40E4
:1043C0004C500D4080B485B000AF786039600A4B26
:1043D0001B68FB60FB6823F03F03FB607A683B6867
:1043E0001343FA681343FB60034AFB6813601437F6
:1043F000BD465DF8047B704754500D4080B483B0D7
:1044000000AF786000BF0E4B1B6803F00103002B68
:10441000F9D00C4A7B681B0E13600B4A7B681B0C9F
:10442000DBB21360094A7B681B0ADBB21360084ADF
:104430007B68DBB213600C37BD465DF8047B7047C8
:1044400050500D404C500D4048500D4044500D40D0
:1044500040500D4080B483B000AF0E4B1B687B60B2
:104460000D4B1B681B027A6813437B600B4B1B6868
:104470001B047A6813437B60094B1B681B067A6830
:1044800013437B607B6818460C37BD465DF8047BA0
:10449000704700BF5C500D4060500D4064500D40AF
:1044A00068500D4080B483B000AF084B1B6803F028
:1044B0000103002B14BF01230023FB71FB79184675
:1044C0000C37BD465DF8047B704700BF58500D4067
:1044D00080B483B000AF074B1B687B607B6823F020
:1044E00001037B60034A7B6813600C37BD465DF8AF
:1044F000047B704758500D4080B586B000AF03462E
:104500003A60FB710B46BB71BB7983F00103DBB2F0
:10451000002B07D0244B1B6843F400133B61224A55
:104520003B691360204B1B683B613A691F4B13408A
:104530003B61FB7983F00103DBB2002B03D03B69C5
:1045400043F080733B61BB79002B02D04FF4803382
:1045500000E00023BB603A69BB6813433B613A69E2
:104560003B6813433B61104A3B691360104B1B6867
:104570007B610023FB6008E0102000F0DFF80C4BAB
:104580001B687B61FB680133FB607B6903F480324D
:10459000BB689A4204D0FB684FF6FE729342EBD997
:1045A0001837BD4680BD00BF00200D40F8FFFEFE5D
:1045B00004200D4080B485B000AF1F4B1B68BB606A
:1045C000BB6803F007037B600023FB607B68072B5D
:1045D0002AD801A252F823F0F9452000FF45200017
:1045E000054620000B4620001146200017462000FB
:1045F0001D46200023462000104BFB6014E0104BAA
:10460000FB6011E00F4BFB600EE00F4BFB600BE01B
:104610000E4BFB6008E00E4BFB6005E00D4BFB60B2
:1046200002E00D4BFB6000BFFB6818461437BD4627
:104630005DF8047B704700BF04200D400048E8018E
:104640000024F40000127A0000093D0080841E005E
:1046500040420F0020A1070090D0030080B485B035
:1046600000AF7860094B1B68FB60FB6823F4E063D4
:10467000FB607B681B02FA681343FB60034AFB681C
:1046800013601437BD465DF8047B704700200D4071
:1046900080B485B000AF204B1B68BB60BB6803F4DF
:1046A000E0631B0A7B600023FB607B68072B2BD831
:1046B00001A252F823F000BFD9462000DF462000B7
:1046C000E5462000EB462000F1462000F74620009A
:1046D000FD46200003472000104BFB6014E0104B08
:1046E000FB6011E00F4BFB600EE00F4BFB600BE03B
:1046F0000E4BFB6008E00E4BFB6005E00D4BFB60D2
:1047000002E00D4BFB6000BFFB6818461437BD4646
:104710005DF8047B704700BF04200D400048E801AD
:104720000024F40000127A0000093D0080841E007D
:1047300040420F0020A1070090D0030001387FF411
:10474000FDAF704780B400AF014B08221A60FEE74E
:1047500074200D4080B500AF00F0AAFD80BD00BF01
:1047600080B582B000AF324B1B687B607B6803F082
:104770000703002B0CBF01230023FB707B6803F4AD
:10478000E063002B0CBF01230023BB70FB78002BE0
:1047900002D1BB78002B18D0264B1B687B60FB78BE
:1047A000002B01D0012300E000237A6813437B60D3
:1047B000BB78002B02D04FF4807300E000237A68AE
:1047C00013437B601B4A7B6813601B4A1A4B1B68B0
:1047D00043F00403136000F06BFD174A164B1B688F
:1047E00023F004031360FB78002B02D1BB78002B6D
:1047F0001BD0104B1B687B60FB78002B02D06FF046
:10480000070301E04FF0FF337A6813407B60BB7809
:10481000002B02D06FF4E06301E04FF0FF337A68C1
:1048200013407B60034A7B6813600837BD4680BD38
:1048300004200D4000200D4010ED00E080B485B054
:1048400000AF78607B681B0A03F00F03042B0BD0CA
:104850007B681B0A03F00F03042B05D07B681B0A3F
:1048600003F00F03052B03D1104B1B68FB6002E024
:104870000F4B1B68FB607B681B0A03F00F030D4A9C
:1048800052F823207B6803F00F0302FA03F3BB60A6
:10489000FA68BB681340002B01D0012300E000231D
:1048A00018461437BD465DF8047B70471C300D4038
:1048B00018300D402458200080B485B000AF7860D7
:1048C0007B681B0A03F00F031D4A52F82330184679
:1048D0007B681B0A03F00F03194A52F823301B6848
:1048E0007A6802F00F02012101FA02F21343036019
:1048F0000023FB6002E0FB680133FB60FB680F2BC9
:10490000F9D97B681B0A03F00F030D4A52F82330D4
:1049100018467B681B0A03F00F03094A52F823303C
:104920001B687A6802F00F02012101FA02F2D243F9
:10493000134003601437BD465DF8047B704700BF29
:104940001058200080B483B000AF78607B681B0AE9
:1049500003F00F030C4A52F8233018467B681B0AF9
:1049600003F00F03084A52F823301B687A6802F0FC
:104970000F02012101FA02F2134303600C37BD4616
:104980005DF8047B704700BFC857200080B483B037
:1049900000AF78607B681B0A03F00F030C4A52F8E3
:1049A000233018467B681B0A03F00F03084A52F8AD
:1049B00023301B687A6802F00F02012101FA02F22B
:1049C000D243134003600C37BD465DF8047B70474B
:1049D000C857200080B483B000AF78607B681B0AA2
:1049E00003F00F030C4A52F8233018467B681B0A69
:1049F00003F00F03084A52F823301B687A6802F06C
:104A00000F02012101FA02F2134303600C37BD4685
:104A10005DF8047B704700BFE057200080B483B08E
:104A200000AF78607B681B0A03F00F030C4A52F852
:104A3000233018467B681B0A03F00F03084A52F81C
:104A400023301B687A6802F00F02012101FA02F29A
:104A5000D243134003600C37BD465DF8047B7047BA
:104A6000E057200080B483B000AF78607B681B0AF9
:104A700003F00F030C4A52F8233018467B681B0AD8
:104A800003F00F03084A52F823301B687A6802F0DB
:104A90000F02012101FA02F2134303600C37BD46F5
:104AA0005DF8047B704700BFF857200080B483B0E6
:104AB00000AF78607B681B0A03F00F030C4A52F8C2
:104AC000233018467B681B0A03F00F03084A52F88C
:104AD00023301B687A6802F00F02012101FA02F20A
:104AE000D243134003600C37BD465DF8047B70472A
:104AF000F857200080B483B000AF7860034A7B6829
:104B000013600C37BD465DF8047B704758200D409C
:104B100080B483B000AF074B1B687B607B6803F0F9
:104B200003037B607B6818460C37BD465DF8047B49
:104B3000704700BF58200D4080B483B000AF074BD2
:104B40001B687B607B6843F001037B60034A7B68E2
:104B500013600C37BD465DF8047B704780200D4024
:104B600080B483B000AF786039607B682C3319461D
:104B70007B682C331B6823F086023B6813430B6071
:104B80000C37BD465DF8047B704700BF80B483B02E
:104B900000AF78607B682C331B6803F086031846EF
:104BA0000C37BD465DF8047B704700BF80B485B00C
:104BB00000AFF860B9607A60FB6834331946BA68B0
:104BC0007B6813430B601437BD465DF8047B704768
:104BD00080B487B000AFF860B9607A60FB683433A6
:104BE0001B687B617B6903F00702BB681A607B6905
:104BF00003F038027B681A601C37BD465DF8047B01
:104C0000704700BF80B586B000AFF860B9607A60C9
:104C10003B60F86800F08EF87B681A01BB689A4226
:104C20000CD9FB6830331A46FB6830331B6843F0FD
:104C3000200313607B685B087B6008E0FB6830330F
:104C40001A46FB6830331B6823F020031360BB68EF
:104C5000DA007B68B2FBF3F301335B087B61FB682E
:104C600024331A467B699B091360FB6828331A4674
:104C70007B6903F03F031360FB682C331A463B68E3
:104C80001360FB6818331A46002313601837BD46BB
:104C900080BD00BF80B487B000AFF860B9607A60B3
:104CA0003B60FB6824331B687B61FB6828331B680F
:104CB0003B61BB689A007B6999013B690B44B2FB7D
:104CC000F3F27B681A60FB6830331B6803F0200343
:104CD000002B04D07B681B685A007B681A60FB6855
:104CE0002C331B6803F0EE023B681A601C37BD468C
:104CF0005DF8047B704700BF80B483B000AF78607C
:104D00007B682C331A467B682C331B6843F01003F6
:104D100013607B6830331A467B6830331B6843F47A
:104D2000407343F0010313600C37BD465DF8047B0C
:104D3000704700BF80B483B000AF786000BF7B686D
:104D400018331B6803F00803002BF8D17B682C3361
:104D50001A467B682C331B6823F0100313607B68B2
:104D600030331A467B6830331B6823F4407323F0DA
:104D7000010313600C37BD465DF8047B704700BF2C
:104D800080B483B000AF78607B682C331A467B68B0
:104D90002C331B6843F0100313600C37BD465DF8DD
:104DA000047B704780B483B000AF78607B682C339D
:104DB0001A467B682C331B6823F0100313600C37F2
:104DC000BD465DF8047B704780B483B000AF786067
:104DD0000B46FB70FB78002B09D07B6830331A46FA
:104DE0007B6830331B6843F00603136008E07B6880
:104DF00030331A467B6830331B6843F0020313607C
:104E00000C37BD465DF8047B704700BF80B483B0AB
:104E100000AF78607B6830331A467B6830331B689C
:104E200023F0060313600C37BD465DF8047B704722
:104E300080B483B000AF786039607B683033194646
:104E40007B6830331B6823F010023B6813430B6010
:104E50000C37BD465DF8047B704700BF80B483B05B
:104E600000AF78607B6830331B6803F0100318468E
:104E70000C37BD465DF8047B704700BF80B483B03B
:104E800000AF78607B6818331B6803F01003002BB9
:104E90000CBF01230023DBB218460C37BD465DF87A
:104EA000047B704780B483B000AF78607B681833B0
:104EB0001B6803F02003002B0CBF01230023DBB28F
:104EC00018460C37BD465DF8047B704780B483B04C
:104ED00000AF78607B6818331B6803F01003002B69
:104EE00002D17B681B6801E04FF0FF3318460C3796
:104EF000BD465DF8047B704780B483B000AF786036
:104F000000BF7B6818331B6803F01003002BF8D137
:104F10007B681B6818460C37BD465DF8047B7047FC
:104F200080B483B000AF78600B46FB707B681833A9
:104F30001B6803F02003002B04D17B68FA781A6009
:104F4000012300E0002318460C37BD465DF8047BC2
:104F5000704700BF80B483B000AF78600B46FB7031
:104F600000BF7B6818331B6803F02003002BF8D1C7
:104F70007B68FA781A600C37BD465DF8047B704791
:104F800080B483B000AF78600B46FB707B682C3335
:104F90001A46FB78002B05D07B682C331B6843F046
:104FA000010304E07B682C331B6823F001031360CA
:104FB0000C37BD465DF8047B704700BF80B483B0FA
:104FC00000AF78607B6818331B6803F00803002B80
:104FD00014BF01230023DBB218460C37BD465DF831
:104FE000047B704780B584B000AF786039607B681F
:104FF000084A934201D1152300E01623FB60F868AC
:105000003968FEF7D9FCF868FEF7A0FD1037BD46F9
:1050100080BD00BF00C0004080B584B000AF7860A4
:105020007B68084A934201D1152300E01623FB60F8
:10503000F868FEF7D5FDF868FEF7F0FC1037BD46BE
:1050400080BD00BF00C0004080B483B000AF786076
:1050500039607B68383319467B6838331A683B6897
:1050600013430B600C37BD465DF8047B704700BFEF
:1050700080B483B000AF786039607B6838331946FC
:105080007B6838331A683B68DB4313400B600C378E
:10509000BD465DF8047B704780B483B000AF786094
:1050A0000B46FB70FB78002B03D07B6840331B68FA
:1050B00002E07B683C331B6818460C37BD465DF840
:1050C000047B704780B483B000AF786039607B6840
:1050D00044331A463B6813600C37BD465DF8047BC9
:1050E000704700BF80B483B000AF786039607B68E0
:1050F000483319467B6848331A683B6813430B6092
:105100000C37BD465DF8047B704700BF80B483B0A8
:1051100000AF786039607B68483319467B68483354
:105120001A683B68DB4313400B600C37BD465DF8E3
:10513000047B704780B483B000AF78607B68043331
:105140001B6803F00F0318460C37BD465DF8047B5F
:10515000704700BF80B483B000AF78607B680433D1
:105160001A46002313600C37BD465DF8047B704778
:1051700080B483B000AF786039607B6803F6C87391
:105180001A463B6813600C37BD465DF8047B7047D8
:1051900080B483B000AF78607B6803F6C8731B6887
:1051A00018460C37BD465DF8047B704780B483B069
:1051B00000AF78607B68A4331A467B68A4331B6811
:1051C00043F4004313600C37BD465DF8047B704721
:1051D00080B483B000AF78607B68A4331A467B68E4
:1051E000A4331B6823F4004313600C37BD465DF8FD
:1051F000047B704780B483B000AF78600B46FB70CF
:105200001346BB707B68A4331A46FB7813607B6837
:10521000A8331A46BB7813600C37BD465DF8047B93
:10522000704700BF80B485B000AF78600B46FB705C
:1052300000BF7B6818331B6803F08803802BF8D10C
:105240007B682C331B68FB607B682C331A46FB6839
:1052500023F0860343F0820313607B68FA781A60B8
:1052600000BF7B6818331B6803F08803802BF8D1DC
:105270007B682C331A46FB6813601437BD465DF813
:10528000047B7047EFF3108072B670471C462346CC
:10529000184600BFEFF3108070471C46234618469F
:1052A000EFF3108062B670471C462346184600BFD5
:1052B00030BF704720BF704740BF704780F31188F0
:1052C000704700BFEFF3118070471C462346184615
:1052D000032A70B426D940EA01039B0711D0047851
:1052E0000D78AC4222D10244431C05E013F8014B77
:1052F00011F8015FAC4219D19342F7D1002070BC84
:1053000070470C4603461E6825681846AE42214683
:1053100003F1040304F1040404D1043A032A1846F7
:105320002146F0D8002ADAD11046E8E7601B70BCAD
:10533000704700BF70B4840746D0541E002A41D085
:10534000CDB2034602E0621EE4B3144603F8015BEB
:105350009A07F8D1032C2ED9CDB245EA05250F2C9A
:1053600045EA054519D9264603F11002103E0F2ED5
:1053700042F8105C42F80C5C42F8085C42F8045CAD
:1053800002F11002F2D8A4F1100222F00F0204F090
:105390000F041032032C13440DD91E462246043A42
:1053A000032A46F8045BFAD8221F22F003020432D3
:1053B000134404F003042CB1C9B21C4403F8011BCC
:1053C000A342FBD170BC704714460346C2E700BF3E
:1053D000683D756362000000434332353338000096
:1053E000434332353338000043433235333820539A
:1053F0006F430000683D756362000000434332352F
:1054000033380000434332353338000043433235EC
:10541000333820536F4300004F70656E57534E2052
:1054200000000000683D75636200000043433235B0
:1054300033380000434332353338000043433235BC
:10544000333820536F430000683D756362000000ED
:10545000434332353338000043433235333800009C
:1054600043433235333820536F4300004F70656E2D
:1054700057534E2000000000683D75636200000035
:10548000434332353338000043433235333800006C
:1054900043433235333820536F430000683D756312
:1054A0006200000043433235333800004343323555
:1054B0003338000043433235333820536F43000004
:1054C000683D7563620000004343323533380000A5
:1054D00043433235333800004343323533382053A9
:1054E0006F430000683D756362000000434332353E
:1054F00033380000434332353338000043433235FC
:10550000333820536F430000683D7563620000002C
:1055100043433235333800004343323533380000DB
:1055200043433235333820536F43000007FF05ED06
:1055300003D501C500B6FFB0FDA1FB91F988F77254
:10554000F562F358F142E800683D756362000000BF
:10555000434332353338000043433235333800009B
:1055600043433235333820536F430000683D756341
:105570006200000043433235333800004343323584
:105580003338000043433235333820536F43000033
:10559000683D7563620000004343323533380000D4
:1055A00043433235333800004343323533382053D8
:1055B0006F43000000070000000600000005000027
:1055C00000040000000300000002000000010000D1
:1055D000000000000000000018ED00E01CED00E0FD
:1055E00020ED00E000E400E004E400E008E400E076
:1055F0000CE400E010E400E014E400E018E400E053
:105600001CE400E020E400E024E400E028E400E002
:105610002CE400E030E400E034E400E038E400E0B2
:105620003CE400E040E400E044E400E048E400E062
:105630004CE400E050E400E054E400E058E400E012
:105640005CE400E060E400E064E400E068E400E0C2
:105650006CE400E070E400E074E400E078E400E072
:105660007CE400E080E400E084E400E088E400E022
:105670008CE400E090E400E000E100E004E100E000
:1056800008E100E00CE100E010E100E080E100E072
:1056900084E100E088E100E08CE100E090E100E0DE
:1056A00000E200E004E200E008E200E00CE200E0DA
:1056B00010E200E080E200E084E200E088E200E046
:1056C0008CE200E090E200E080400D4084400D401C
:1056D00088400D408C400D4090400D4094400D405E
:1056E00098400D409C400D40A0400D40A4400D400E
:1056F000A8400D40AC400D40B0400D40B4400D40BE
:10570000B8400D40BC400D40C0400D40C4400D406D
:10571000C8400D40CC400D40D0400D40D4400D401D
:10572000D8400D40DC400D40E0400D40E4400D40CD
:10573000E8400D40EC400D40F0400D40F4400D407D
:10574000F8400D40FC400D4000400D4004400D402D
:1057500008400D400C400D4010400D4014400D40DD
:1057600018400D401C400D4020400D4024400D408D
:1057700028400D402C400D4030400D4034400D403D
:1057800038400D403C400D4040400D4044400D40ED
:1057900048400D404C400D4050400D4054400D409D
:1057A00058400D405C400D4060400D4064400D404D
:1057B00068400D406C400D4070400D4074400D40FD
:1057C00078400D407C400D4008200D4018200D40D1
:1057D00028200D4038200D4048200D40A8200D40C5
:1057E0000C200D401C200D402C200D403C200D4075
:1057F0004C200D40AC200D4010200D4020200D40CD
:1058000030200D4040200D4050200D40B0200D4074
:1058100014200D4024200D4034200D4044200D4024
:1058200054200D40010000000001000000000100B4
:0C58300000000001010000000400000066
:10583C00000000000000000000000000000000005C
:10584C00000000000000000000000000000000004C
:10585C00000000000000000000000000000000003C
:10586C00000000000000000000000000000000002C
:105ABC000000000000000000000000003031323314
:0C5ACC0034353637383961626364656632
:020000040027D3
:0CFFD400FFFFFFF3000000000000200011
:04000005002019F1CD
:00000001FF
